{"abi":[{"type":"constructor","inputs":[{"name":"entryPoint_","type":"address","internalType":"contract IEntryPoint"},{"name":"usdc_","type":"address","internalType":"contract IERC20"},{"name":"identityRegistry_","type":"address","internalType":"contract IERC8004Registry"}],"stateMutability":"nonpayable"},{"type":"function","name":"IDENTITY_REGISTRY","inputs":[],"outputs":[{"name":"","type":"address","internalType":"contract IERC8004Registry"}],"stateMutability":"view"},{"type":"function","name":"USDC","inputs":[],"outputs":[{"name":"","type":"address","internalType":"contract IERC20"}],"stateMutability":"view"},{"type":"function","name":"accountToAgentId","inputs":[{"name":"","type":"address","internalType":"address"}],"outputs":[{"name":"","type":"uint256","internalType":"uint256"}],"stateMutability":"view"},{"type":"function","name":"addStake","inputs":[{"name":"unstakeDelaySec","type":"uint32","internalType":"uint32"}],"outputs":[],"stateMutability":"payable"},{"type":"function","name":"deposit","inputs":[],"outputs":[],"stateMutability":"payable"},{"type":"function","name":"entryPoint","inputs":[],"outputs":[{"name":"","type":"address","internalType":"contract IEntryPoint"}],"stateMutability":"view"},{"type":"function","name":"escrow","inputs":[],"outputs":[{"name":"","type":"address","internalType":"contract IAuctionEscrowBonds"}],"stateMutability":"view"},{"type":"function","name":"getDeposit","inputs":[],"outputs":[{"name":"","type":"uint256","internalType":"uint256"}],"stateMutability":"view"},{"type":"function","name":"owner","inputs":[],"outputs":[{"name":"","type":"address","internalType":"address"}],"stateMutability":"view"},{"type":"function","name":"postOp","inputs":[{"name":"mode","type":"uint8","internalType":"enum IPaymaster.PostOpMode"},{"name":"context","type":"bytes","internalType":"bytes"},{"name":"actualGasCost","type":"uint256","internalType":"uint256"},{"name":"actualUserOpFeePerGas","type":"uint256","internalType":"uint256"}],"outputs":[],"stateMutability":"nonpayable"},{"type":"function","name":"registerAgent","inputs":[{"name":"account","type":"address","internalType":"address"},{"name":"agentId","type":"uint256","internalType":"uint256"}],"outputs":[],"stateMutability":"nonpayable"},{"type":"function","name":"renounceOwnership","inputs":[],"outputs":[],"stateMutability":"nonpayable"},{"type":"function","name":"setEscrow","inputs":[{"name":"escrow_","type":"address","internalType":"address"}],"outputs":[],"stateMutability":"nonpayable"},{"type":"function","name":"transferOwnership","inputs":[{"name":"newOwner","type":"address","internalType":"address"}],"outputs":[],"stateMutability":"nonpayable"},{"type":"function","name":"unlockStake","inputs":[],"outputs":[],"stateMutability":"nonpayable"},{"type":"function","name":"validatePaymasterUserOp","inputs":[{"name":"userOp","type":"tuple","internalType":"struct PackedUserOperation","components":[{"name":"sender","type":"address","internalType":"address"},{"name":"nonce","type":"uint256","internalType":"uint256"},{"name":"initCode","type":"bytes","internalType":"bytes"},{"name":"callData","type":"bytes","internalType":"bytes"},{"name":"accountGasLimits","type":"bytes32","internalType":"bytes32"},{"name":"preVerificationGas","type":"uint256","internalType":"uint256"},{"name":"gasFees","type":"bytes32","internalType":"bytes32"},{"name":"paymasterAndData","type":"bytes","internalType":"bytes"},{"name":"signature","type":"bytes","internalType":"bytes"}]},{"name":"userOpHash","type":"bytes32","internalType":"bytes32"},{"name":"maxCost","type":"uint256","internalType":"uint256"}],"outputs":[{"name":"context","type":"bytes","internalType":"bytes"},{"name":"validationData","type":"uint256","internalType":"uint256"}],"stateMutability":"nonpayable"},{"type":"function","name":"withdrawStake","inputs":[{"name":"withdrawAddress","type":"address","internalType":"address payable"}],"outputs":[],"stateMutability":"nonpayable"},{"type":"function","name":"withdrawTo","inputs":[{"name":"withdrawAddress","type":"address","internalType":"address payable"},{"name":"amount","type":"uint256","internalType":"uint256"}],"outputs":[],"stateMutability":"nonpayable"},{"type":"event","name":"AgentRegistered","inputs":[{"name":"account","type":"address","indexed":true,"internalType":"address"},{"name":"agentId","type":"uint256","indexed":true,"internalType":"uint256"}],"anonymous":false},{"type":"event","name":"EscrowUpdated","inputs":[{"name":"oldEscrow","type":"address","indexed":true,"internalType":"address"},{"name":"newEscrow","type":"address","indexed":true,"internalType":"address"}],"anonymous":false},{"type":"event","name":"GasSponsored","inputs":[{"name":"account","type":"address","indexed":true,"internalType":"address"},{"name":"actualGasCost","type":"uint256","indexed":false,"internalType":"uint256"}],"anonymous":false},{"type":"event","name":"OwnershipTransferred","inputs":[{"name":"previousOwner","type":"address","indexed":true,"internalType":"address"},{"name":"newOwner","type":"address","indexed":true,"internalType":"address"}],"anonymous":false},{"type":"error","name":"AgentIdNotMapped","inputs":[]},{"type":"error","name":"AgentNotRegistered","inputs":[]},{"type":"error","name":"EscrowNotSet","inputs":[]},{"type":"error","name":"InsufficientBond","inputs":[]},{"type":"error","name":"OwnableInvalidOwner","inputs":[{"name":"owner","type":"address","internalType":"address"}]},{"type":"error","name":"OwnableUnauthorizedAccount","inputs":[{"name":"account","type":"address","internalType":"address"}]},{"type":"error","name":"TransferMustTargetEscrow","inputs":[]},{"type":"error","name":"UnsupportedOperation","inputs":[]}],"bytecode":{"object":"0x60e060405234801562000010575f80fd5b50604051620014e0380380620014e08339810160408190526200003391620001b6565b8233806200005b57604051631e4fbdf760e01b81525f60048201526024015b60405180910390fd5b620000668162000091565b506200007281620000e0565b6001600160a01b0390811660805291821660a0521660c052506200022f565b5f80546001600160a01b038381166001600160a01b0319831681178455604051919092169283917f8be0079c531659141344cd1fd0a4f28419497f9722a3daafe3b4186f6b6457e09190a35050565b6040516301ffc9a760e01b815263122a0e9b60e31b60048201526001600160a01b038216906301ffc9a790602401602060405180830381865afa1580156200012a573d5f803e3d5ffd5b505050506040513d601f19601f8201168201806040525081019062000150919062000207565b6200019e5760405162461bcd60e51b815260206004820152601e60248201527f49456e747279506f696e7420696e74657266616365206d69736d617463680000604482015260640162000052565b50565b6001600160a01b03811681146200019e575f80fd5b5f805f60608486031215620001c9575f80fd5b8351620001d681620001a1565b6020850151909350620001e981620001a1565b6040850151909250620001fc81620001a1565b809150509250925092565b5f6020828403121562000218575f80fd5b8151801515811462000228575f80fd5b9392505050565b60805160a05160c051611247620002995f395f81816101dc0152610a5001525f818161025a015261096201525f81816102a9015281816103990152818161042c01528181610517015281816106050152818161066f015281816106fa01526107be01526112475ff3fe608060405260043610610105575f3560e01c80638da5cb5b11610092578063c23a5cea11610062578063c23a5cea146102fe578063c399ec881461031d578063d0e30db014610331578063e2fdcc1714610339578063f2fde38b14610358575f80fd5b80638da5cb5b1461027c578063b0d691fe14610298578063bb9fe6bf146102cb578063c10c3546146102df575f80fd5b8063611d3c33116100d8578063611d3c331461019257806365fad027146101cb578063715018a6146102165780637c627b211461022a57806389a3027114610249575f80fd5b80630396cb6014610109578063205c28781461011e5780633543ad581461013d57806352b7512c1461015c575b5f80fd5b61011c610117366004610e1a565b610377565b005b348015610129575f80fd5b5061011c610138366004610e58565b6103fe565b348015610148575f80fd5b5061011c610157366004610e58565b61046d565b348015610167575f80fd5b5061017b610176366004610e82565b6104bb565b604051610189929190610ed1565b60405180910390f35b34801561019d575f80fd5b506101bd6101ac366004610f23565b60026020525f908152604090205481565b604051908152602001610189565b3480156101d6575f80fd5b506101fe7f000000000000000000000000000000000000000000000000000000000000000081565b6040516001600160a01b039091168152602001610189565b348015610221575f80fd5b5061011c6104de565b348015610235575f80fd5b5061011c610244366004610f3e565b6104f1565b348015610254575f80fd5b506101fe7f000000000000000000000000000000000000000000000000000000000000000081565b348015610287575f80fd5b505f546001600160a01b03166101fe565b3480156102a3575f80fd5b506101fe7f000000000000000000000000000000000000000000000000000000000000000081565b3480156102d6575f80fd5b5061011c61050d565b3480156102ea575f80fd5b5061011c6102f9366004610f23565b610585565b348015610309575f80fd5b5061011c610318366004610f23565b6105de565b348015610328575f80fd5b506101bd610658565b61011c6106e5565b348015610344575f80fd5b506001546101fe906001600160a01b031681565b348015610363575f80fd5b5061011c610372366004610f23565b610745565b61037f610787565b604051621cb65b60e51b815263ffffffff821660048201527f00000000000000000000000000000000000000000000000000000000000000006001600160a01b031690630396cb609034906024015f604051808303818588803b1580156103e4575f80fd5b505af11580156103f6573d5f803e3d5ffd5b505050505050565b610406610787565b60405163040b850f60e31b81526001600160a01b038381166004830152602482018390527f0000000000000000000000000000000000000000000000000000000000000000169063205c2878906044015f604051808303815f87803b1580156103e4575f80fd5b610475610787565b6001600160a01b0382165f81815260026020526040808220849055518392917fd1b844701695237443dd884ed7193d9c8788f3befd35adc0910472eb166f330691a35050565b60605f6104c66107b3565b6104d1858585610823565b915091505b935093915050565b6104e6610787565b6104ef5f610c6a565b565b6104f96107b3565b6105068585858585610cb9565b5050505050565b610515610787565b7f00000000000000000000000000000000000000000000000000000000000000006001600160a01b031663bb9fe6bf6040518163ffffffff1660e01b81526004015f604051808303815f87803b15801561056d575f80fd5b505af115801561057f573d5f803e3d5ffd5b50505050565b61058d610787565b600180546001600160a01b038381166001600160a01b0319831681179093556040519116919082907f7585d57d6b7e68da76c1b2062d978cf5e09854b3a995d6a6a95610db8b40801f905f90a35050565b6105e6610787565b60405163611d2e7560e11b81526001600160a01b0382811660048301527f0000000000000000000000000000000000000000000000000000000000000000169063c23a5cea906024015f604051808303815f87803b158015610646575f80fd5b505af1158015610506573d5f803e3d5ffd5b6040516370a0823160e01b81523060048201525f907f00000000000000000000000000000000000000000000000000000000000000006001600160a01b0316906370a0823190602401602060405180830381865afa1580156106bc573d5f803e3d5ffd5b505050506040513d601f19601f820116820180604052508101906106e09190610fcd565b905090565b60405163b760faf960e01b81523060048201527f00000000000000000000000000000000000000000000000000000000000000006001600160a01b03169063b760faf99034906024015f604051808303818588803b158015610646575f80fd5b61074d610787565b6001600160a01b03811661077b57604051631e4fbdf760e01b81525f60048201526024015b60405180910390fd5b61078481610c6a565b50565b5f546001600160a01b031633146104ef5760405163118cdaa760e01b8152336004820152602401610772565b336001600160a01b037f000000000000000000000000000000000000000000000000000000000000000016146104ef5760405162461bcd60e51b815260206004820152601560248201527414d95b99195c881b9bdd08115b9d1c9e541bda5b9d605a1b6044820152606401610772565b60605f600461083486840187610fe4565b9050101561085557604051639ba6061b60e01b815260040160405180910390fd5b5f6108636060870187610fe4565b610871916004915f9161102e565b61087a91611055565b90506001600160e01b03198116635b0e93fb60e11b146108ad57604051639ba6061b60e01b815260040160405180910390fd5b5f806108bc6060890189610fe4565b6108ca91600490829061102e565b8101906108d79190611099565b92505091506004815110156108ff57604051639ba6061b60e01b815260040160405180910390fd5b5f61090b826020015190565b90505f60028161091e60208d018d610f23565b6001600160a01b03166001600160a01b031681526020019081526020015f20549050805f0361096057604051633f070cfb60e01b815260040160405180910390fd5b7f00000000000000000000000000000000000000000000000000000000000000006001600160a01b0316846001600160a01b03161480156109b157506001600160e01b0319821663a9059cbb60e01b145b15610b21576001546001600160a01b03166109df57604051634eca2d6760e01b815260040160405180910390fd5b5f6109eb846004610d13565b8060200190518101906109fe919061115f565b506001549091506001600160a01b03808316911614610a3057604051630bc6f4cd60e41b815260040160405180910390fd5b6040516331a9108f60e11b8152600481018390525f906001600160a01b037f00000000000000000000000000000000000000000000000000000000000000001690636352211e90602401602060405180830381865afa158015610a95573d5f803e3d5ffd5b505050506040513d601f19601f82011682018060405250810190610ab9919061118b565b6001600160a01b031603610ae0576040516383bcfb4760e01b815260040160405180910390fd5b610aed60208c018c610f23565b604080516001600160a01b039092166020830152016040516020818303038152906040525f975097505050505050506104d6565b610b2d603460206111ba565b610b3a60e08c018c610fe4565b90501015610b5b57604051639ba6061b60e01b815260040160405180910390fd5b5f610b6960e08c018c610fe4565b603490610b778260206111ba565b92610b849392919061102e565b610b8d916111cd565b60015460405163752390bb60e11b815260048101839052602481018590529192505f916001600160a01b039091169063ea47217690604401602060405180830381865afa158015610be0573d5f803e3d5ffd5b505050506040513d601f19601f82011682018060405250810190610c049190610fcd565b9050805f03610c265760405163e92c469f60e01b815260040160405180910390fd5b610c3360208d018d610f23565b604080516001600160a01b0390921660208301520160408051601f198184030181529190529c5f9c509a5050505050505050505050565b5f80546001600160a01b038381166001600160a01b0319831681178455604051919092169283917f8be0079c531659141344cd1fd0a4f28419497f9722a3daafe3b4186f6b6457e09190a35050565b5f610cc684860186610f23565b9050806001600160a01b03167f2f5b7da0b8502c9a04f1c60a92a12cc859cb3cefb8951253e2f1c0df6c65d28d84604051610d0391815260200190565b60405180910390a2505050505050565b60608183511015610d5c5760405162461bcd60e51b8152602060048201526013602482015272736c696365206f7574206f6620626f756e647360681b6044820152606401610772565b5f828451610d6a91906111ea565b67ffffffffffffffff811115610d8257610d82611085565b6040519080825280601f01601f191660200182016040528015610dac576020820181803683370190505b5090505f5b8151811015610e105784610dc585836111ba565b81518110610dd557610dd56111fd565b602001015160f81c60f81b828281518110610df257610df26111fd565b60200101906001600160f81b03191690815f1a905350600101610db1565b5090505b92915050565b5f60208284031215610e2a575f80fd5b813563ffffffff81168114610e3d575f80fd5b9392505050565b6001600160a01b0381168114610784575f80fd5b5f8060408385031215610e69575f80fd5b8235610e7481610e44565b946020939093013593505050565b5f805f60608486031215610e94575f80fd5b833567ffffffffffffffff811115610eaa575f80fd5b84016101208187031215610ebc575f80fd5b95602085013595506040909401359392505050565b604081525f83518060408401525f5b81811015610efd5760208187018101516060868401015201610ee0565b505f606082850101526060601f19601f8301168401019150508260208301529392505050565b5f60208284031215610f33575f80fd5b8135610e3d81610e44565b5f805f805f60808688031215610f52575f80fd5b853560038110610f60575f80fd5b9450602086013567ffffffffffffffff80821115610f7c575f80fd5b818801915088601f830112610f8f575f80fd5b813581811115610f9d575f80fd5b896020828501011115610fae575f80fd5b9699602092909201985095966040810135965060600135945092505050565b5f60208284031215610fdd575f80fd5b5051919050565b5f808335601e19843603018112610ff9575f80fd5b83018035915067ffffffffffffffff821115611013575f80fd5b602001915036819003821315611027575f80fd5b9250929050565b5f808585111561103c575f80fd5b83861115611048575f80fd5b5050820193919092039150565b6001600160e01b0319813581811691600485101561107d5780818660040360031b1b83161692505b505092915050565b634e487b7160e01b5f52604160045260245ffd5b5f805f606084860312156110ab575f80fd5b83356110b681610e44565b925060208401359150604084013567ffffffffffffffff808211156110d9575f80fd5b818601915086601f8301126110ec575f80fd5b8135818111156110fe576110fe611085565b604051601f8201601f19908116603f0116810190838211818310171561112657611126611085565b8160405282815289602084870101111561113e575f80fd5b826020860160208301375f6020848301015280955050505050509250925092565b5f8060408385031215611170575f80fd5b825161117b81610e44565b6020939093015192949293505050565b5f6020828403121561119b575f80fd5b8151610e3d81610e44565b634e487b7160e01b5f52601160045260245ffd5b80820180821115610e1457610e146111a6565b80356020831015610e14575f19602084900360031b1b1692915050565b81810381811115610e1457610e146111a6565b634e487b7160e01b5f52603260045260245ffdfea264697066735822122023de06cca3222daf344c26dde282f2e7d9ec052e42bdbfd7c0f5240cd47c586d64736f6c63430008180033","linkReferences":{}},"methodIdentifiers":{"IDENTITY_REGISTRY()":"65fad027","USDC()":"89a30271","accountToAgentId(address)":"611d3c33","addStake(uint32)":"0396cb60","deposit()":"d0e30db0","entryPoint()":"b0d691fe","escrow()":"e2fdcc17","getDeposit()":"c399ec88","owner()":"8da5cb5b","postOp(uint8,bytes,uint256,uint256)":"7c627b21","registerAgent(address,uint256)":"3543ad58","renounceOwnership()":"715018a6","setEscrow(address)":"c10c3546","transferOwnership(address)":"f2fde38b","unlockStake()":"bb9fe6bf","validatePaymasterUserOp((address,uint256,bytes,bytes,bytes32,uint256,bytes32,bytes,bytes),bytes32,uint256)":"52b7512c","withdrawStake(address)":"c23a5cea","withdrawTo(address,uint256)":"205c2878"},"id":22}