{"abi":[{"type":"constructor","inputs":[{"name":"workflowId_","type":"bytes32","internalType":"bytes32"},{"name":"workflowName_","type":"bytes10","internalType":"bytes10"},{"name":"workflowOwner_","type":"address","internalType":"address"}],"stateMutability":"nonpayable"},{"type":"function","name":"forwardReport","inputs":[{"name":"target","type":"address","internalType":"address"},{"name":"report","type":"bytes","internalType":"bytes"}],"outputs":[],"stateMutability":"nonpayable"},{"type":"function","name":"forwardReportWithMetadata","inputs":[{"name":"target","type":"address","internalType":"address"},{"name":"metadata","type":"bytes","internalType":"bytes"},{"name":"report","type":"bytes","internalType":"bytes"}],"outputs":[],"stateMutability":"nonpayable"},{"type":"function","name":"reportId","inputs":[],"outputs":[{"name":"","type":"bytes2","internalType":"bytes2"}],"stateMutability":"view"},{"type":"function","name":"setReportId","inputs":[{"name":"reportId_","type":"bytes2","internalType":"bytes2"}],"outputs":[],"stateMutability":"nonpayable"},{"type":"function","name":"setWorkflowId","inputs":[{"name":"workflowId_","type":"bytes32","internalType":"bytes32"}],"outputs":[],"stateMutability":"nonpayable"},{"type":"function","name":"setWorkflowName","inputs":[{"name":"workflowName_","type":"bytes10","internalType":"bytes10"}],"outputs":[],"stateMutability":"nonpayable"},{"type":"function","name":"setWorkflowOwner","inputs":[{"name":"workflowOwner_","type":"address","internalType":"address"}],"outputs":[],"stateMutability":"nonpayable"},{"type":"function","name":"workflowId","inputs":[],"outputs":[{"name":"","type":"bytes32","internalType":"bytes32"}],"stateMutability":"view"},{"type":"function","name":"workflowName","inputs":[],"outputs":[{"name":"","type":"bytes10","internalType":"bytes10"}],"stateMutability":"view"},{"type":"function","name":"workflowOwner","inputs":[],"outputs":[{"name":"","type":"address","internalType":"address"}],"stateMutability":"view"},{"type":"event","name":"ReportForwarded","inputs":[{"name":"target","type":"address","indexed":true,"internalType":"address"},{"name":"workflowId","type":"bytes32","indexed":false,"internalType":"bytes32"},{"name":"success","type":"bool","indexed":false,"internalType":"bool"}],"anonymous":false},{"type":"error","name":"ForwardFailed","inputs":[{"name":"reason","type":"bytes","internalType":"bytes"}]}],"bytecode":{"object":"0x608060405234801561000f575f80fd5b5060405161077d38038061077d83398101604081905261002e9161007f565b5f9290925560018054600160f01b60b09390931c6001600160f01b0319909116176a01000000000000000000006001600160a01b0390941693909302929092176001600160f01b03161790556100d7565b5f805f60608486031215610091575f80fd5b835160208501519093506001600160b01b0319811681146100b0575f80fd5b60408501519092506001600160a01b03811681146100cc575f80fd5b809150509250925092565b610699806100e45f395ff3fe608060405234801561000f575f80fd5b506004361061009b575f3560e01c806384d64e7e1161006357806384d64e7e1461013c5780639b9bd88914610162578063d8f52bad1461018f578063df6465d0146101c1578063e5ad1c8a146101d7575f80fd5b80630ca709141461009f57806368d9db7a146100d15780636e2cd01f146100e55780636e2f3b7f146100f85780636fba05ec1461010b575b5f80fd5b6001546100b390600160f01b900460f01b81565b6040516001600160f01b031990911681526020015b60405180910390f35b6100e36100df3660046103f7565b5f55565b005b6100e36100f336600461046e565b610226565b6100e36101063660046104e9565b6102d2565b6100e3610119366004610538565b6001805460f09290921c600160f01b026001600160f01b03909216919091179055565b6001546101499060b01b81565b6040516001600160b01b031990911681526020016100c8565b6100e3610170366004610566565b6001805469ffffffffffffffffffff191660b09290921c919091179055565b6001546101a990600160501b90046001600160a01b031681565b6040516001600160a01b0390911681526020016100c8565b6101c95f5481565b6040519081526020016100c8565b6100e36101e536600461058d565b600180546001600160a01b03909216600160501b027fffff0000000000000000000000000000000000000000ffffffffffffffffffff909216919091179055565b60405163402f909960e11b81526001600160a01b0386169063805f2132906102589087908790879087906004016105ce565b5f604051808303815f87803b15801561026f575f80fd5b505af1158015610281573d5f803e3d5ffd5b50505f5460408051918252600160208301526001600160a01b03891693507fa0f6629b2fd6567719dc10f5375a62bdfbcf9dd2ac75cb3d81de37aff9f8cf8b92500160405180910390a25050505050565b5f61034b5f5460015460408051602081019390935260b082901b6001600160b01b03191690830152600160501b8104606090811b6bffffffffffffffffffffffff1916604a840152600160f01b90910460f01b6001600160f01b031916605e830152908101604051602081830303815290604052905090565b60405163402f909960e11b81529091506001600160a01b0385169063805f21329061037e908490879087906004016105ff565b5f604051808303815f87803b158015610395575f80fd5b505af11580156103a7573d5f803e3d5ffd5b50505f5460408051918252600160208301526001600160a01b03881693507fa0f6629b2fd6567719dc10f5375a62bdfbcf9dd2ac75cb3d81de37aff9f8cf8b92500160405180910390a250505050565b5f60208284031215610407575f80fd5b5035919050565b80356001600160a01b0381168114610424575f80fd5b919050565b5f8083601f840112610439575f80fd5b50813567ffffffffffffffff811115610450575f80fd5b602083019150836020828501011115610467575f80fd5b9250929050565b5f805f805f60608688031215610482575f80fd5b61048b8661040e565b9450602086013567ffffffffffffffff808211156104a7575f80fd5b6104b389838a01610429565b909650945060408801359150808211156104cb575f80fd5b506104d888828901610429565b969995985093965092949392505050565b5f805f604084860312156104fb575f80fd5b6105048461040e565b9250602084013567ffffffffffffffff81111561051f575f80fd5b61052b86828701610429565b9497909650939450505050565b5f60208284031215610548575f80fd5b81356001600160f01b03198116811461055f575f80fd5b9392505050565b5f60208284031215610576575f80fd5b81356001600160b01b03198116811461055f575f80fd5b5f6020828403121561059d575f80fd5b61055f8261040e565b81835281816020850137505f828201602090810191909152601f909101601f19169091010190565b604081525f6105e16040830186886105a6565b82810360208401526105f48185876105a6565b979650505050505050565b604081525f84518060408401525f5b8181101561062b576020818801810151606086840101520161060e565b505f60608285010152601f19601f8201168301905060608382030160208401526106596060820185876105a6565b969550505050505056fea2646970667358221220bd85a86cadc81e41636e5112305a990f221396bd53806afb05df2b440c50f87c64736f6c63430008180033","linkReferences":{}},"methodIdentifiers":{"forwardReport(address,bytes)":"6e2f3b7f","forwardReportWithMetadata(address,bytes,bytes)":"6e2cd01f","reportId()":"0ca70914","setReportId(bytes2)":"6fba05ec","setWorkflowId(bytes32)":"68d9db7a","setWorkflowName(bytes10)":"9b9bd889","setWorkflowOwner(address)":"e5ad1c8a","workflowId()":"df6465d0","workflowName()":"84d64e7e","workflowOwner()":"d8f52bad"},"id":25}