{"abi":[{"type":"constructor","inputs":[{"name":"entryPoint_","type":"address","internalType":"contract IEntryPoint"}],"stateMutability":"nonpayable"},{"type":"receive","stateMutability":"payable"},{"type":"function","name":"entryPoint","inputs":[],"outputs":[{"name":"","type":"address","internalType":"contract IEntryPoint"}],"stateMutability":"view"},{"type":"function","name":"execute","inputs":[{"name":"target","type":"address","internalType":"address"},{"name":"value","type":"uint256","internalType":"uint256"},{"name":"data","type":"bytes","internalType":"bytes"}],"outputs":[{"name":"","type":"bytes","internalType":"bytes"}],"stateMutability":"nonpayable"},{"type":"function","name":"executeBatch","inputs":[{"name":"targets","type":"address[]","internalType":"address[]"},{"name":"values","type":"uint256[]","internalType":"uint256[]"},{"name":"datas","type":"bytes[]","internalType":"bytes[]"}],"outputs":[{"name":"results","type":"bytes[]","internalType":"bytes[]"}],"stateMutability":"nonpayable"},{"type":"function","name":"getNonce","inputs":[],"outputs":[{"name":"","type":"uint256","internalType":"uint256"}],"stateMutability":"view"},{"type":"function","name":"initialize","inputs":[{"name":"runtimeSigner_","type":"address","internalType":"address"}],"outputs":[],"stateMutability":"nonpayable"},{"type":"function","name":"runtimeSigner","inputs":[],"outputs":[{"name":"","type":"address","internalType":"address"}],"stateMutability":"view"},{"type":"function","name":"setRuntimeSigner","inputs":[{"name":"newSigner","type":"address","internalType":"address"}],"outputs":[],"stateMutability":"nonpayable"},{"type":"function","name":"validateUserOp","inputs":[{"name":"userOp","type":"tuple","internalType":"struct PackedUserOperation","components":[{"name":"sender","type":"address","internalType":"address"},{"name":"nonce","type":"uint256","internalType":"uint256"},{"name":"initCode","type":"bytes","internalType":"bytes"},{"name":"callData","type":"bytes","internalType":"bytes"},{"name":"accountGasLimits","type":"bytes32","internalType":"bytes32"},{"name":"preVerificationGas","type":"uint256","internalType":"uint256"},{"name":"gasFees","type":"bytes32","internalType":"bytes32"},{"name":"paymasterAndData","type":"bytes","internalType":"bytes"},{"name":"signature","type":"bytes","internalType":"bytes"}]},{"name":"userOpHash","type":"bytes32","internalType":"bytes32"},{"name":"missingAccountFunds","type":"uint256","internalType":"uint256"}],"outputs":[{"name":"validationData","type":"uint256","internalType":"uint256"}],"stateMutability":"nonpayable"},{"type":"event","name":"Initialized","inputs":[{"name":"version","type":"uint64","indexed":false,"internalType":"uint64"}],"anonymous":false},{"type":"event","name":"RuntimeSignerRotated","inputs":[{"name":"oldSigner","type":"address","indexed":true,"internalType":"address"},{"name":"newSigner","type":"address","indexed":true,"internalType":"address"}],"anonymous":false},{"type":"error","name":"ECDSAInvalidSignature","inputs":[]},{"type":"error","name":"ECDSAInvalidSignatureLength","inputs":[{"name":"length","type":"uint256","internalType":"uint256"}]},{"type":"error","name":"ECDSAInvalidSignatureS","inputs":[{"name":"s","type":"bytes32","internalType":"bytes32"}]},{"type":"error","name":"InvalidInitialization","inputs":[]},{"type":"error","name":"InvalidSigner","inputs":[]},{"type":"error","name":"NotInitializing","inputs":[]},{"type":"error","name":"OnlyEntryPointOrSelf","inputs":[]},{"type":"error","name":"ZeroAddress","inputs":[]}],"bytecode":{"object":"0x60a060405234801561000f575f80fd5b50604051610f0d380380610f0d83398101604081905261002e916100fb565b6001600160a01b038116608052610043610049565b50610128565b7ff0c57e16840df040f15088dc2f81fe391c3923bec73e23a9662efc9c229c6a00805468010000000000000000900460ff16156100995760405163f92ee8a960e01b815260040160405180910390fd5b80546001600160401b03908116146100f85780546001600160401b0319166001600160401b0390811782556040519081527fc7f505b2f371ae2175ee4913f4499e1f2633a7b5936321eed1cdaeb6115181d29060200160405180910390a15b50565b5f6020828403121561010b575f80fd5b81516001600160a01b0381168114610121575f80fd5b9392505050565b608051610db86101555f395f818161014a015281816105f00152818161068d01526108070152610db85ff3fe60806040526004361061007c575f3560e01c8063b0d691fe1161004c578063b0d691fe1461013c578063b61d27f61461016e578063c4d66de81461019a578063d087d288146101b9575f80fd5b8063159d4e9f1461008757806319822f7c146100c257806347e1da2a146100ef57806386bbc9111461011b575f80fd5b3661008357005b5f80fd5b348015610092575f80fd5b505f546100a5906001600160a01b031681565b6040516001600160a01b0390911681526020015b60405180910390f35b3480156100cd575f80fd5b506100e16100dc366004610a48565b6101cd565b6040519081526020016100b9565b3480156100fa575f80fd5b5061010e610109366004610adf565b6101f2565b6040516100b99190610bb5565b348015610126575f80fd5b5061013a610135366004610c32565b6103a7565b005b348015610147575f80fd5b507f00000000000000000000000000000000000000000000000000000000000000006100a5565b348015610179575f80fd5b5061018d610188366004610c4b565b610425565b6040516100b99190610ccb565b3480156101a5575f80fd5b5061013a6101b4366004610c32565b6104a7565b3480156101c4575f80fd5b506100e16105ed565b5f6101d6610682565b6101e084846106fc565b90506101eb826107a7565b9392505050565b60606101fc6107fc565b858414801561020a57508382145b61024d5760405162461bcd60e51b815260206004820152600f60248201526e0d8cadccee8d040dad2e6dac2e8c6d608b1b60448201526064015b60405180910390fd5b8567ffffffffffffffff81111561026657610266610cdd565b60405190808252806020026020018201604052801561029957816020015b60608152602001906001900390816102845790505b5090505f5b8681101561039c575f808989848181106102ba576102ba610cf1565b90506020020160208101906102cf9190610c32565b6001600160a01b03168888858181106102ea576102ea610cf1565b9050602002013587878681811061030357610303610cf1565b90506020028101906103159190610d05565b604051610323929190610d48565b5f6040518083038185875af1925050503d805f811461035d576040519150601f19603f3d011682016040523d82523d5f602084013e610362565b606091505b50915091508161037457805160208201fd5b8084848151811061038757610387610cf1565b6020908102919091010152505060010161029e565b509695505050505050565b6103af6107fc565b6001600160a01b0381166103d65760405163d92e233d60e01b815260040160405180910390fd5b5f80546001600160a01b038381166001600160a01b0319831681178455604051919092169283917f5f23747d0a034f66e84c2e9398e09fdae5d0ea00a7c1cfbf169af52bb9aa08889190a35050565b606061042f6107fc565b5f80866001600160a01b031686868660405161044c929190610d48565b5f6040518083038185875af1925050503d805f8114610486576040519150601f19603f3d011682016040523d82523d5f602084013e61048b565b606091505b50915091508161049d57805160208201fd5b9695505050505050565b7ff0c57e16840df040f15088dc2f81fe391c3923bec73e23a9662efc9c229c6a008054600160401b810460ff16159067ffffffffffffffff165f811580156104ec5750825b90505f8267ffffffffffffffff1660011480156105085750303b155b905081158015610516575080155b156105345760405163f92ee8a960e01b815260040160405180910390fd5b845467ffffffffffffffff19166001178555831561055e57845460ff60401b1916600160401b1785555b6001600160a01b0386166105855760405163d92e233d60e01b815260040160405180910390fd5b5f80546001600160a01b0319166001600160a01b03881617905583156105e557845460ff60401b19168555604051600181527fc7f505b2f371ae2175ee4913f4499e1f2633a7b5936321eed1cdaeb6115181d29060200160405180910390a15b505050505050565b5f7f0000000000000000000000000000000000000000000000000000000000000000604051631aab3f0d60e11b81523060048201525f60248201526001600160a01b0391909116906335567e1a90604401602060405180830381865afa158015610659573d5f803e3d5ffd5b505050506040513d601f19601f8201168201806040525081019061067d9190610d57565b905090565b336001600160a01b037f000000000000000000000000000000000000000000000000000000000000000016146106fa5760405162461bcd60e51b815260206004820152601c60248201527f6163636f756e743a206e6f742066726f6d20456e747279506f696e74000000006044820152606401610244565b565b7f19457468657265756d205369676e6564204d6573736167653a0a3332000000005f908152601c829052603c81205f6107768261073d610100880188610d05565b8080601f0160208091040260200160405190810160405280939291908181526020018383808284375f9201919091525061085392505050565b5f549091506001600160a01b038083169116146107985760019250505061079e565b5f925050505b92915050565b50565b80156107a4576040515f9033905f1990849084818181858888f193505050503d805f81146107f0576040519150601f19603f3d011682016040523d82523d5f602084013e6107f5565b606091505b5050505050565b336001600160a01b037f000000000000000000000000000000000000000000000000000000000000000016148015906108355750333014155b156106fa57604051635172e04d60e11b815260040160405180910390fd5b5f805f80610861868661087b565b92509250925061087182826108c4565b5090949350505050565b5f805f83516041036108b2576020840151604085015160608601515f1a6108a488828585610980565b9550955095505050506108bd565b505081515f91506002905b9250925092565b5f8260038111156108d7576108d7610d6e565b036108e0575050565b60018260038111156108f4576108f4610d6e565b036109125760405163f645eedf60e01b815260040160405180910390fd5b600282600381111561092657610926610d6e565b036109475760405163fce698f760e01b815260048101829052602401610244565b600382600381111561095b5761095b610d6e565b0361097c576040516335e2f38360e21b815260048101829052602401610244565b5050565b5f80807f7fffffffffffffffffffffffffffffff5d576e7357a4501ddfe92f46681b20a08411156109b957505f91506003905082610a3e565b604080515f808252602082018084528a905260ff891692820192909252606081018790526080810186905260019060a0016020604051602081039080840390855afa158015610a0a573d5f803e3d5ffd5b5050604051601f1901519150506001600160a01b038116610a3557505f925060019150829050610a3e565b92505f91508190505b9450945094915050565b5f805f60608486031215610a5a575f80fd5b833567ffffffffffffffff811115610a70575f80fd5b84016101208187031215610a82575f80fd5b95602085013595506040909401359392505050565b5f8083601f840112610aa7575f80fd5b50813567ffffffffffffffff811115610abe575f80fd5b6020830191508360208260051b8501011115610ad8575f80fd5b9250929050565b5f805f805f8060608789031215610af4575f80fd5b863567ffffffffffffffff80821115610b0b575f80fd5b610b178a838b01610a97565b90985096506020890135915080821115610b2f575f80fd5b610b3b8a838b01610a97565b90965094506040890135915080821115610b53575f80fd5b50610b6089828a01610a97565b979a9699509497509295939492505050565b5f81518084525f5b81811015610b9657602081850181015186830182015201610b7a565b505f602082860101526020601f19601f83011685010191505092915050565b5f60208083016020845280855180835260408601915060408160051b8701019250602087015f5b82811015610c0a57603f19888603018452610bf8858351610b72565b94509285019290850190600101610bdc565b5092979650505050505050565b80356001600160a01b0381168114610c2d575f80fd5b919050565b5f60208284031215610c42575f80fd5b6101eb82610c17565b5f805f8060608587031215610c5e575f80fd5b610c6785610c17565b935060208501359250604085013567ffffffffffffffff80821115610c8a575f80fd5b818701915087601f830112610c9d575f80fd5b813581811115610cab575f80fd5b886020828501011115610cbc575f80fd5b95989497505060200194505050565b602081525f6101eb6020830184610b72565b634e487b7160e01b5f52604160045260245ffd5b634e487b7160e01b5f52603260045260245ffd5b5f808335601e19843603018112610d1a575f80fd5b83018035915067ffffffffffffffff821115610d34575f80fd5b602001915036819003821315610ad8575f80fd5b818382375f9101908152919050565b5f60208284031215610d67575f80fd5b5051919050565b634e487b7160e01b5f52602160045260245ffdfea2646970667358221220724b854f0ce0c9e70200b9a5e606b8edfffff7a91aec7541b08fc53f43ffb7bd64736f6c63430008180033","linkReferences":{}},"methodIdentifiers":{"entryPoint()":"b0d691fe","execute(address,uint256,bytes)":"b61d27f6","executeBatch(address[],uint256[],bytes[])":"47e1da2a","getNonce()":"d087d288","initialize(address)":"c4d66de8","runtimeSigner()":"159d4e9f","setRuntimeSigner(address)":"86bbc911","validateUserOp((address,uint256,bytes,bytes,bytes32,uint256,bytes32,bytes,bytes),bytes32,uint256)":"19822f7c"},"id":17}