{"abi":[{"type":"constructor","inputs":[{"name":"usdc_","type":"address","internalType":"contract IERC20"},{"name":"forwarder_","type":"address","internalType":"address"}],"stateMutability":"nonpayable"},{"type":"function","name":"FORWARDER","inputs":[],"outputs":[{"name":"","type":"address","internalType":"address"}],"stateMutability":"view"},{"type":"function","name":"USDC","inputs":[],"outputs":[{"name":"","type":"address","internalType":"contract IERC20"}],"stateMutability":"view"},{"type":"function","name":"admin","inputs":[],"outputs":[{"name":"","type":"address","internalType":"address"}],"stateMutability":"view"},{"type":"function","name":"adminRefund","inputs":[{"name":"auctionId","type":"bytes32","internalType":"bytes32"},{"name":"agentId","type":"uint256","internalType":"uint256"}],"outputs":[],"stateMutability":"nonpayable"},{"type":"function","name":"auctionSettled","inputs":[{"name":"","type":"bytes32","internalType":"bytes32"}],"outputs":[{"name":"","type":"bool","internalType":"bool"}],"stateMutability":"view"},{"type":"function","name":"bondTxProcessed","inputs":[{"name":"","type":"bytes32","internalType":"bytes32"}],"outputs":[{"name":"","type":"bool","internalType":"bool"}],"stateMutability":"view"},{"type":"function","name":"bonds","inputs":[{"name":"","type":"bytes32","internalType":"bytes32"},{"name":"","type":"uint256","internalType":"uint256"}],"outputs":[{"name":"depositor","type":"address","internalType":"address"},{"name":"amount","type":"uint256","internalType":"uint256"},{"name":"refunded","type":"bool","internalType":"bool"}],"stateMutability":"view"},{"type":"function","name":"checkSolvency","inputs":[],"outputs":[{"name":"","type":"bool","internalType":"bool"}],"stateMutability":"view"},{"type":"function","name":"claimRefund","inputs":[{"name":"auctionId","type":"bytes32","internalType":"bytes32"},{"name":"agentId","type":"uint256","internalType":"uint256"}],"outputs":[],"stateMutability":"nonpayable"},{"type":"function","name":"configureCRE","inputs":[{"name":"workflowId_","type":"bytes32","internalType":"bytes32"},{"name":"name_","type":"string","internalType":"string"},{"name":"author_","type":"address","internalType":"address"}],"outputs":[],"stateMutability":"nonpayable"},{"type":"function","name":"expectedAuthor","inputs":[],"outputs":[{"name":"","type":"address","internalType":"address"}],"stateMutability":"view"},{"type":"function","name":"expectedWorkflowId","inputs":[],"outputs":[{"name":"","type":"bytes32","internalType":"bytes32"}],"stateMutability":"view"},{"type":"function","name":"expectedWorkflowName","inputs":[],"outputs":[{"name":"","type":"string","internalType":"string"}],"stateMutability":"view"},{"type":"function","name":"getBondAmount","inputs":[{"name":"auctionId","type":"bytes32","internalType":"bytes32"},{"name":"agentId","type":"uint256","internalType":"uint256"}],"outputs":[{"name":"","type":"uint256","internalType":"uint256"}],"stateMutability":"view"},{"type":"function","name":"onReport","inputs":[{"name":"metadata","type":"bytes","internalType":"bytes"},{"name":"report","type":"bytes","internalType":"bytes"}],"outputs":[],"stateMutability":"nonpayable"},{"type":"function","name":"owner","inputs":[],"outputs":[{"name":"","type":"address","internalType":"address"}],"stateMutability":"view"},{"type":"function","name":"recordBond","inputs":[{"name":"auctionId","type":"bytes32","internalType":"bytes32"},{"name":"agentId","type":"uint256","internalType":"uint256"},{"name":"depositor","type":"address","internalType":"address"},{"name":"amount","type":"uint256","internalType":"uint256"},{"name":"txHash","type":"bytes32","internalType":"bytes32"},{"name":"logIndex","type":"uint256","internalType":"uint256"}],"outputs":[],"stateMutability":"nonpayable"},{"type":"function","name":"registry","inputs":[],"outputs":[{"name":"","type":"address","internalType":"contract IAuctionRegistry"}],"stateMutability":"view"},{"type":"function","name":"renounceOwnership","inputs":[],"outputs":[],"stateMutability":"nonpayable"},{"type":"function","name":"setAdmin","inputs":[{"name":"admin_","type":"address","internalType":"address"}],"outputs":[],"stateMutability":"nonpayable"},{"type":"function","name":"setExpectedAuthor","inputs":[{"name":"author_","type":"address","internalType":"address"}],"outputs":[],"stateMutability":"nonpayable"},{"type":"function","name":"setExpectedWorkflowId","inputs":[{"name":"workflowId_","type":"bytes32","internalType":"bytes32"}],"outputs":[],"stateMutability":"nonpayable"},{"type":"function","name":"setExpectedWorkflowName","inputs":[{"name":"name_","type":"string","internalType":"string"}],"outputs":[],"stateMutability":"nonpayable"},{"type":"function","name":"setRegistry","inputs":[{"name":"registry_","type":"address","internalType":"address"}],"outputs":[],"stateMutability":"nonpayable"},{"type":"function","name":"totalBonded","inputs":[],"outputs":[{"name":"","type":"uint256","internalType":"uint256"}],"stateMutability":"view"},{"type":"function","name":"totalWithdrawable","inputs":[],"outputs":[{"name":"","type":"uint256","internalType":"uint256"}],"stateMutability":"view"},{"type":"function","name":"transferOwnership","inputs":[{"name":"newOwner","type":"address","internalType":"address"}],"outputs":[],"stateMutability":"nonpayable"},{"type":"function","name":"withdraw","inputs":[{"name":"agentId","type":"uint256","internalType":"uint256"},{"name":"to","type":"address","internalType":"address"}],"outputs":[],"stateMutability":"nonpayable"},{"type":"function","name":"withdrawable","inputs":[{"name":"","type":"uint256","internalType":"uint256"}],"outputs":[{"name":"","type":"uint256","internalType":"uint256"}],"stateMutability":"view"},{"type":"event","name":"AdminRefund","inputs":[{"name":"auctionId","type":"bytes32","indexed":true,"internalType":"bytes32"},{"name":"agentId","type":"uint256","indexed":true,"internalType":"uint256"},{"name":"amount","type":"uint256","indexed":false,"internalType":"uint256"}],"anonymous":false},{"type":"event","name":"AdminUpdated","inputs":[{"name":"admin","type":"address","indexed":true,"internalType":"address"}],"anonymous":false},{"type":"event","name":"BondRecorded","inputs":[{"name":"auctionId","type":"bytes32","indexed":true,"internalType":"bytes32"},{"name":"agentId","type":"uint256","indexed":true,"internalType":"uint256"},{"name":"depositor","type":"address","indexed":false,"internalType":"address"},{"name":"amount","type":"uint256","indexed":false,"internalType":"uint256"}],"anonymous":false},{"type":"event","name":"CREConfigured","inputs":[{"name":"workflowId","type":"bytes32","indexed":false,"internalType":"bytes32"},{"name":"workflowName","type":"string","indexed":false,"internalType":"string"},{"name":"author","type":"address","indexed":false,"internalType":"address"}],"anonymous":false},{"type":"event","name":"OwnershipTransferred","inputs":[{"name":"previousOwner","type":"address","indexed":true,"internalType":"address"},{"name":"newOwner","type":"address","indexed":true,"internalType":"address"}],"anonymous":false},{"type":"event","name":"RefundClaimed","inputs":[{"name":"auctionId","type":"bytes32","indexed":true,"internalType":"bytes32"},{"name":"agentId","type":"uint256","indexed":true,"internalType":"uint256"},{"name":"amount","type":"uint256","indexed":false,"internalType":"uint256"}],"anonymous":false},{"type":"event","name":"RegistryUpdated","inputs":[{"name":"registry","type":"address","indexed":true,"internalType":"address"}],"anonymous":false},{"type":"event","name":"SettlementProcessed","inputs":[{"name":"auctionId","type":"bytes32","indexed":true,"internalType":"bytes32"},{"name":"winnerAgentId","type":"uint256","indexed":true,"internalType":"uint256"},{"name":"amount","type":"uint256","indexed":false,"internalType":"uint256"}],"anonymous":false},{"type":"event","name":"Withdrawn","inputs":[{"name":"agentId","type":"uint256","indexed":true,"internalType":"uint256"},{"name":"to","type":"address","indexed":false,"internalType":"address"},{"name":"amount","type":"uint256","indexed":false,"internalType":"uint256"}],"anonymous":false},{"type":"error","name":"AlreadyRefunded","inputs":[]},{"type":"error","name":"AlreadySettled","inputs":[]},{"type":"error","name":"BondAlreadyExists","inputs":[]},{"type":"error","name":"BondAlreadyProcessed","inputs":[]},{"type":"error","name":"InvalidReport","inputs":[]},{"type":"error","name":"NoBondFound","inputs":[]},{"type":"error","name":"NotSettled","inputs":[]},{"type":"error","name":"NothingToWithdraw","inputs":[]},{"type":"error","name":"OnlyAdmin","inputs":[]},{"type":"error","name":"OnlyForwarder","inputs":[]},{"type":"error","name":"OwnableInvalidOwner","inputs":[{"name":"owner","type":"address","internalType":"address"}]},{"type":"error","name":"OwnableUnauthorizedAccount","inputs":[{"name":"account","type":"address","internalType":"address"}]},{"type":"error","name":"ReentrancyGuardReentrantCall","inputs":[]},{"type":"error","name":"SafeERC20FailedOperation","inputs":[{"name":"token","type":"address","internalType":"address"}]},{"type":"error","name":"SolvencyViolation","inputs":[]},{"type":"error","name":"ZeroAddress","inputs":[]},{"type":"error","name":"ZeroAmount","inputs":[]}],"bytecode":{"object":"0x60c060405234801562000010575f80fd5b50604051620017f1380380620017f18339810160408190526200003391620000fa565b33806200005957604051631e4fbdf760e01b81525f600482015260240160405180910390fd5b620000648162000093565b50600180556001600160a01b039182166080521660a052600680546001600160a01b0319163317905562000137565b5f80546001600160a01b038381166001600160a01b0319831681178455604051919092169283917f8be0079c531659141344cd1fd0a4f28419497f9722a3daafe3b4186f6b6457e09190a35050565b6001600160a01b0381168114620000f7575f80fd5b50565b5f80604083850312156200010c575f80fd5b82516200011981620000e2565b60208401519092506200012c81620000e2565b809150509250929050565b60805160a05161167c620001755f395f81816103dc0152610ef301525f81816103260152818161051001528181610b260152610c79015261167c5ff3fe608060405234801561000f575f80fd5b50600436106101c5575f3560e01c8063a91ee0dc116100fe578063d194ea731161009e578063ea4721761161006e578063ea4721761461044c578063f11988e01461045f578063f2fde38b1461047e578063f851a44014610491575f80fd5b8063d194ea73146103fe578063d60c884b14610411578063dbd19fce14610424578063e2bb629014610437575f80fd5b8063c3c44ac2116100d9578063c3c44ac2146103b3578063c409b1a2146103c6578063c7926d04146103cf578063ca2ad973146103d7575f80fd5b8063a91ee0dc1461036b578063ab5d13f21461037e578063bc1fc27a146103a0575f80fd5b8063704b6c0211610169578063805f213211610144578063805f21321461030e57806389a30271146103215780638da5cb5b14610348578063a84d019914610358575f80fd5b8063704b6c02146102c8578063715018a6146102db5780637b103999146102e3575f80fd5b806344d96e95116101a457806344d96e951461020d5780635a15b573146102165780636083bb27146102295780636aadf3da1461025b575f80fd5b8062f714ce146101c95780630600a865146101de57806326e7b5fe146101fa575b5f80fd5b6101dc6101d736600461113f565b6104a4565b005b6101e7600b5481565b6040519081526020015b60405180910390f35b6101dc61020836600461116d565b610589565b6101e7600a5481565b6101dc6102243660046111bc565b61072d565b61024b6102373660046111dc565b60086020525f908152604090205460ff1681565b60405190151581526020016101f1565b6102a16102693660046111bc565b600760209081525f92835260408084209091529082529020805460018201546002909201546001600160a01b03909116919060ff1683565b604080516001600160a01b03909416845260208401929092521515908201526060016101f1565b6101dc6102d63660046111f3565b610871565b6101dc6108e9565b6005546102f6906001600160a01b031681565b6040516001600160a01b0390911681526020016101f1565b6101dc61031c36600461125a565b6108fc565b6102f67f000000000000000000000000000000000000000000000000000000000000000081565b5f546001600160a01b03166102f6565b6101dc6103663660046112c1565b6109e8565b6101dc6103793660046111f3565b610a61565b61024b61038c3660046111dc565b600c6020525f908152604090205460ff1681565b6101dc6103ae36600461131c565b610ad9565b6101dc6103c13660046111dc565b610af3565b6101e760025481565b61024b610b00565b6102f67f000000000000000000000000000000000000000000000000000000000000000081565b6004546102f6906001600160a01b031681565b6101dc61041f3660046111f3565b610b9e565b6101dc6104323660046111bc565b610bc8565b61043f610cd5565b6040516101f1919061135b565b6101e761045a3660046111bc565b610d61565b6101e761046d3660046111dc565b60096020525f908152604090205481565b6101dc61048c3660046111f3565b610d84565b6006546102f6906001600160a01b031681565b6104ac610dc6565b5f82815260096020526040812054908190036104db57604051630686827b60e51b815260040160405180910390fd5b5f838152600960205260408120819055600b80548392906104fd9084906113bb565b9091555061053790506001600160a01b037f0000000000000000000000000000000000000000000000000000000000000000168383610df0565b604080516001600160a01b03841681526020810183905284917fcf7d23a3cbe4e8b36ff82fd1b05b1b17373dc7804b4ebbd6e2356716ef202372910160405180910390a25061058560018055565b5050565b610591610e42565b825f036105b157604051631f2a200560e01b815260040160405180910390fd5b604080516020808201859052818301849052825180830384018152606090920183528151918101919091205f81815260089092529190205460ff161561060a5760405163b24b4c6560e01b815260040160405180910390fd5b5f818152600860209081526040808320805460ff191660019081179091558a8452600783528184208a855290925290912001541561065b57604051630f948ba960e41b815260040160405180910390fd5b604080516060810182526001600160a01b03878116825260208083018881525f8486018181528d8252600784528682208d8352909352948520935184546001600160a01b031916931692909217835590516001830155516002909101805460ff1916911515919091179055600a80548692906106d89084906113ce565b9091555050604080516001600160a01b038716815260208101869052879189917f4e925073139cd00823ed16254a69188acde7871f38146fa8a7f414558c2ff33091015b60405180910390a350505050505050565b610735610dc6565b5f828152600c602052604090205460ff166107635760405163ba329a9b60e01b815260040160405180910390fd5b5f828152600760209081526040808320848452909152812060018101549091036107a0576040516376014d7f60e01b815260040160405180910390fd5b600281015460ff16156107c65760405163542f378d60e11b815260040160405180910390fd5b60028101805460ff19166001908117909155810154600a80548291905f906107ef9084906113bb565b90915550505f83815260096020526040812080548392906108119084906113ce565b9250508190555080600b5f82825461082991906113ce565b9091555050604051818152839085907f10cf1ce688e4ea77b6feb3deae391f34c92f4aa6c617c4a670b227532288d2f3906020015b60405180910390a3505061058560018055565b610879610e6d565b6001600160a01b0381166108a05760405163d92e233d60e01b815260040160405180910390fd5b600680546001600160a01b0319166001600160a01b0383169081179091556040517f54e4612788f90384e6843298d7854436f3a585b2c3831ab66abf1de63bfa6c2d905f90a250565b6108f1610e6d565b6108fa5f610e99565b565b610904610ee8565b604083101561092657604051632d56b1d560e21b815260040160405180910390fd5b5f61093460208286886113e1565b61093d91611408565b90505f61094e603e602a87896113e1565b61095791611425565b60601c90505f801b6002541415801561097257506002548214155b1561099057604051632d56b1d560e21b815260040160405180910390fd5b6004546001600160a01b0316158015906109b857506004546001600160a01b03828116911614155b156109d657604051632d56b1d560e21b815260040160405180910390fd5b6109e08484610f31565b505050505050565b6109f0610e6d565b60028490556003610a028385836114f1565b50600480546001600160a01b0319166001600160a01b0383161790556040517e458356be99e1e48f75777542b004879bd8d42fcb519ff85bc9fac0e8e8719790610a539086908690869086906115ab565b60405180910390a150505050565b610a69610e6d565b6001600160a01b038116610a905760405163d92e233d60e01b815260040160405180910390fd5b600580546001600160a01b0319166001600160a01b0383169081179091556040517fd6ceddf6d2a22f21c7c81675c518004eff43bc5c8a6fc32a0b748e69d58671cd905f90a250565b610ae1610e6d565b6003610aee8284836114f1565b505050565b610afb610e6d565b600255565b5f600b54600a54610b1191906113ce565b6040516370a0823160e01b81523060048201527f00000000000000000000000000000000000000000000000000000000000000006001600160a01b0316906370a0823190602401602060405180830381865afa158015610b73573d5f803e3d5ffd5b505050506040513d601f19601f82011682018060405250810190610b9791906115f3565b1015905090565b610ba6610e6d565b600480546001600160a01b0319166001600160a01b0392909216919091179055565b610bd0610e42565b610bd8610dc6565b5f82815260076020908152604080832084845290915281206001810154909103610c15576040516376014d7f60e01b815260040160405180910390fd5b600281015460ff1615610c3b5760405163542f378d60e11b815260040160405180910390fd5b60028101805460ff19166001908117909155810154600a80548291905f90610c649084906113bb565b90915550508154610ca2906001600160a01b037f00000000000000000000000000000000000000000000000000000000000000008116911683610df0565b82847f33bf9b5908f28e9404960b04c89a7d918fd7583c91ad7739a5a94e5e3b0f89378360405161085e91815260200190565b60038054610ce29061146e565b80601f0160208091040260200160405190810160405280929190818152602001828054610d0e9061146e565b8015610d595780601f10610d3057610100808354040283529160200191610d59565b820191905f5260205f20905b815481529060010190602001808311610d3c57829003601f168201915b505050505081565b5f8281526007602090815260408083208484529091529020600101545b92915050565b610d8c610e6d565b6001600160a01b038116610dba57604051631e4fbdf760e01b81525f60048201526024015b60405180910390fd5b610dc381610e99565b50565b600260015403610de957604051633ee5aeb560e01b815260040160405180910390fd5b6002600155565b604080516001600160a01b038416602482015260448082018490528251808303909101815260649091019091526020810180516001600160e01b031663a9059cbb60e01b179052610aee9084906110b9565b6006546001600160a01b031633146108fa57604051634755657960e01b815260040160405180910390fd5b5f546001600160a01b031633146108fa5760405163118cdaa760e01b8152336004820152602401610db1565b5f80546001600160a01b038381166001600160a01b0319831681178455604051919092169283917f8be0079c531659141344cd1fd0a4f28419497f9722a3daafe3b4186f6b6457e09190a35050565b336001600160a01b037f000000000000000000000000000000000000000000000000000000000000000016146108fa5760405163a73d374160e01b815260040160405180910390fd5b5f808080610f418587018761160a565b5f848152600c60205260409020549397509195509350915060ff1615610f795760405162560ff960e81b815260040160405180910390fd5b5f848152600c60209081526040808320805460ff1916600190811790915560078352818420878552909252909120908101541561101b5760018082015460028301805460ff1916909217909155600a80548291905f90610fda9084906113bb565b90915550505f8581526009602052604081208054839290610ffc9084906113ce565b9250508190555080600b5f82825461101491906113ce565b9091555050505b6005546001600160a01b03161561108657600554604051634365788160e11b8152600481018790526001600160a01b03909116906386caf102906024015f604051808303815f87803b15801561106f575f80fd5b505af1158015611081573d5f803e3d5ffd5b505050505b83857f3a96d6229d4f63cde974e7c178399e4ae24cd1ebc60396880808705f8fca729c8460405161071c91815260200190565b5f8060205f8451602086015f885af1806110d8576040513d5f823e3d81fd5b50505f513d915081156110ef5780600114156110fc565b6001600160a01b0384163b155b1561112557604051635274afe760e01b81526001600160a01b0385166004820152602401610db1565b50505050565b6001600160a01b0381168114610dc3575f80fd5b5f8060408385031215611150575f80fd5b8235915060208301356111628161112b565b809150509250929050565b5f805f805f8060c08789031215611182575f80fd5b8635955060208701359450604087013561119b8161112b565b959894975094956060810135955060808101359460a0909101359350915050565b5f80604083850312156111cd575f80fd5b50508035926020909101359150565b5f602082840312156111ec575f80fd5b5035919050565b5f60208284031215611203575f80fd5b813561120e8161112b565b9392505050565b5f8083601f840112611225575f80fd5b50813567ffffffffffffffff81111561123c575f80fd5b602083019150836020828501011115611253575f80fd5b9250929050565b5f805f806040858703121561126d575f80fd5b843567ffffffffffffffff80821115611284575f80fd5b61129088838901611215565b909650945060208701359150808211156112a8575f80fd5b506112b587828801611215565b95989497509550505050565b5f805f80606085870312156112d4575f80fd5b84359350602085013567ffffffffffffffff8111156112f1575f80fd5b6112fd87828801611215565b90945092505060408501356113118161112b565b939692955090935050565b5f806020838503121561132d575f80fd5b823567ffffffffffffffff811115611343575f80fd5b61134f85828601611215565b90969095509350505050565b5f602080835283518060208501525f5b818110156113875785810183015185820160400152820161136b565b505f604082860101526040601f19601f8301168501019250505092915050565b634e487b7160e01b5f52601160045260245ffd5b81810381811115610d7e57610d7e6113a7565b80820180821115610d7e57610d7e6113a7565b5f80858511156113ef575f80fd5b838611156113fb575f80fd5b5050820193919092039150565b80356020831015610d7e575f19602084900360031b1b1692915050565b6bffffffffffffffffffffffff1981358181169160148510156114525780818660140360031b1b83161692505b505092915050565b634e487b7160e01b5f52604160045260245ffd5b600181811c9082168061148257607f821691505b6020821081036114a057634e487b7160e01b5f52602260045260245ffd5b50919050565b601f821115610aee57805f5260205f20601f840160051c810160208510156114cb5750805b601f840160051c820191505b818110156114ea575f81556001016114d7565b5050505050565b67ffffffffffffffff8311156115095761150961145a565b61151d83611517835461146e565b836114a6565b5f601f84116001811461154e575f85156115375750838201355b5f19600387901b1c1916600186901b1783556114ea565b5f83815260208120601f198716915b8281101561157d578685013582556020948501946001909201910161155d565b5086821015611599575f1960f88860031b161c19848701351681555b505060018560011b0183555050505050565b84815260606020820152826060820152828460808301375f8184016080908101919091526001600160a01b03929092166040820152601f909201601f19169091010192915050565b5f60208284031215611603575f80fd5b5051919050565b5f805f806080858703121561161d575f80fd5b843593506020850135925060408501356116368161112b565b939692955092936060013592505056fea2646970667358221220c3a8bfcefcaf425f17c83529d1dc64b23771b8bbe35937af87b839d33336fb5d64736f6c63430008180033","linkReferences":{}},"methodIdentifiers":{"FORWARDER()":"ca2ad973","USDC()":"89a30271","admin()":"f851a440","adminRefund(bytes32,uint256)":"dbd19fce","auctionSettled(bytes32)":"ab5d13f2","bondTxProcessed(bytes32)":"6083bb27","bonds(bytes32,uint256)":"6aadf3da","checkSolvency()":"c7926d04","claimRefund(bytes32,uint256)":"5a15b573","configureCRE(bytes32,string,address)":"a84d0199","expectedAuthor()":"d194ea73","expectedWorkflowId()":"c409b1a2","expectedWorkflowName()":"e2bb6290","getBondAmount(bytes32,uint256)":"ea472176","onReport(bytes,bytes)":"805f2132","owner()":"8da5cb5b","recordBond(bytes32,uint256,address,uint256,bytes32,uint256)":"26e7b5fe","registry()":"7b103999","renounceOwnership()":"715018a6","setAdmin(address)":"704b6c02","setExpectedAuthor(address)":"d60c884b","setExpectedWorkflowId(bytes32)":"c3c44ac2","setExpectedWorkflowName(string)":"bc1fc27a","setRegistry(address)":"a91ee0dc","totalBonded()":"44d96e95","totalWithdrawable()":"0600a865","transferOwnership(address)":"f2fde38b","withdraw(uint256,address)":"00f714ce","withdrawable(uint256)":"f11988e0"},"id":23}