{"abi":[{"type":"constructor","inputs":[{"name":"entryPoint_","type":"address","internalType":"contract IEntryPoint"}],"stateMutability":"nonpayable"},{"type":"function","name":"ACCOUNT_IMPLEMENTATION","inputs":[],"outputs":[{"name":"","type":"address","internalType":"contract AgentAccount"}],"stateMutability":"view"},{"type":"function","name":"ENTRY_POINT","inputs":[],"outputs":[{"name":"","type":"address","internalType":"contract IEntryPoint"}],"stateMutability":"view"},{"type":"function","name":"createAccount","inputs":[{"name":"runtimeSigner","type":"address","internalType":"address"},{"name":"salt","type":"uint256","internalType":"uint256"}],"outputs":[{"name":"","type":"address","internalType":"contract AgentAccount"}],"stateMutability":"nonpayable"},{"type":"function","name":"getAddress","inputs":[{"name":"runtimeSigner","type":"address","internalType":"address"},{"name":"salt","type":"uint256","internalType":"uint256"}],"outputs":[{"name":"","type":"address","internalType":"address"}],"stateMutability":"view"},{"type":"event","name":"AccountCreated","inputs":[{"name":"account","type":"address","indexed":true,"internalType":"address"},{"name":"runtimeSigner","type":"address","indexed":true,"internalType":"address"},{"name":"salt","type":"uint256","indexed":false,"internalType":"uint256"}],"anonymous":false}],"bytecode":{"object":"0x60c060405234801561000f575f80fd5b5060405161180938038061180983398101604081905261002e91610092565b6001600160a01b03811660a052604051819061004990610085565b6001600160a01b039091168152602001604051809103905ff080158015610072573d5f803e3d5ffd5b506001600160a01b0316608052506100bf565b610f0d806108fc83390190565b5f602082840312156100a2575f80fd5b81516001600160a01b03811681146100b8575f80fd5b9392505050565b60805160a0516108106100ec5f395f60bc01525f818160530152818161011b015261022c01526108105ff3fe608060405234801561000f575f80fd5b506004361061004a575f3560e01c8063290ab9841461004e5780635fbfb9cf146100915780638cb84e18146100a457806394430fa5146100b7575b5f80fd5b6100757f000000000000000000000000000000000000000000000000000000000000000081565b6040516001600160a01b03909116815260200160405180910390f35b61007561009f366004610324565b6100de565b6100756100b2366004610324565b6101f4565b6100757f000000000000000000000000000000000000000000000000000000000000000081565b5f806100ea84846101f4565b90506001600160a01b0381163b156101035790506101ee565b6040516001600160a01b03851660248201525f9084907f00000000000000000000000000000000000000000000000000000000000000009060440160408051601f198184030181529181526020820180516001600160e01b031663189acdbd60e31b1790525161017290610317565b61017d92919061037b565b8190604051809103905ff590508015801561019a573d5f803e3d5ffd5b509050846001600160a01b0316816001600160a01b03167f33310a89c32d8cc00057ad6ef6274d2f8fe22389a992cf89983e09fc84f6cfff866040516101e291815260200190565b60405180910390a39150505b92915050565b5f806040518060200161020690610317565b601f1982820381018352601f9091011660408190526001600160a01b03861660248201527f00000000000000000000000000000000000000000000000000000000000000009060440160408051601f19818403018152918152602080830180516001600160e01b031663189acdbd60e31b17905290516102889392910161037b565b60408051601f19818403018152908290526102a692916020016103bc565b60405160208183030381529060405290506102ca835f1b82805190602001206102d2565b949350505050565b5f6102de8383306102e5565b9392505050565b5f604051836040820152846020820152828152600b8101905060ff8153605590206001600160a01b0316949350505050565b6103f0806103eb83390190565b5f8060408385031215610335575f80fd5b82356001600160a01b038116811461034b575f80fd5b946020939093013593505050565b5f5b8381101561037357818101518382015260200161035b565b50505f910152565b60018060a01b0383168152604060208201525f82518060408401526103a7816060850160208701610359565b601f01601f1916919091016060019392505050565b5f83516103cd818460208801610359565b8351908301906103e1818360208801610359565b0194935050505056fe60806040526040516103f03803806103f08339810160408190526100229161025e565b61002c8282610033565b5050610341565b61003c82610091565b6040516001600160a01b038316907fbc7cd75a20ee27fd9adebab32041f755214dbc6bffa90cc0225b39da2e5c2d3b905f90a280511561008557610080828261010c565b505050565b61008d61017f565b5050565b806001600160a01b03163b5f036100cb57604051634c9c8ce360e01b81526001600160a01b03821660048201526024015b60405180910390fd5b7f360894a13ba1a3210667c828492db98dca3e2076cc3735a920a3ca505d382bbc80546001600160a01b0319166001600160a01b0392909216919091179055565b60605f80846001600160a01b0316846040516101289190610326565b5f60405180830381855af49150503d805f8114610160576040519150601f19603f3d011682016040523d82523d5f602084013e610165565b606091505b5090925090506101768583836101a0565b95945050505050565b341561019e5760405163b398979f60e01b815260040160405180910390fd5b565b6060826101b5576101b0826101ff565b6101f8565b81511580156101cc57506001600160a01b0384163b155b156101f557604051639996b31560e01b81526001600160a01b03851660048201526024016100c2565b50805b9392505050565b80511561020f5780518082602001fd5b60405163d6bda27560e01b815260040160405180910390fd5b634e487b7160e01b5f52604160045260245ffd5b5f5b8381101561025657818101518382015260200161023e565b50505f910152565b5f806040838503121561026f575f80fd5b82516001600160a01b0381168114610285575f80fd5b60208401519092506001600160401b03808211156102a1575f80fd5b818501915085601f8301126102b4575f80fd5b8151818111156102c6576102c6610228565b604051601f8201601f19908116603f011681019083821181831017156102ee576102ee610228565b81604052828152886020848701011115610306575f80fd5b61031783602083016020880161023c565b80955050505050509250929050565b5f825161033781846020870161023c565b9190910192915050565b60a38061034d5f395ff3fe6080604052600a600c565b005b60186014601a565b6050565b565b5f604b7f360894a13ba1a3210667c828492db98dca3e2076cc3735a920a3ca505d382bbc546001600160a01b031690565b905090565b365f80375f80365f845af43d5f803e8080156069573d5ff35b3d5ffdfea26469706673582212209f0db6e3f020bcad4b552ba8d114a7c6441a7254405b41fc2e81477ef9d7f1df64736f6c63430008180033a2646970667358221220568bbf0499a8c80e1dc73b642d1fbc78bb4d4d3b187cd17497c3f150f499292864736f6c6343000818003360a060405234801561000f575f80fd5b50604051610f0d380380610f0d83398101604081905261002e916100fb565b6001600160a01b038116608052610043610049565b50610128565b7ff0c57e16840df040f15088dc2f81fe391c3923bec73e23a9662efc9c229c6a00805468010000000000000000900460ff16156100995760405163f92ee8a960e01b815260040160405180910390fd5b80546001600160401b03908116146100f85780546001600160401b0319166001600160401b0390811782556040519081527fc7f505b2f371ae2175ee4913f4499e1f2633a7b5936321eed1cdaeb6115181d29060200160405180910390a15b50565b5f6020828403121561010b575f80fd5b81516001600160a01b0381168114610121575f80fd5b9392505050565b608051610db86101555f395f818161014a015281816105f00152818161068d01526108070152610db85ff3fe60806040526004361061007c575f3560e01c8063b0d691fe1161004c578063b0d691fe1461013c578063b61d27f61461016e578063c4d66de81461019a578063d087d288146101b9575f80fd5b8063159d4e9f1461008757806319822f7c146100c257806347e1da2a146100ef57806386bbc9111461011b575f80fd5b3661008357005b5f80fd5b348015610092575f80fd5b505f546100a5906001600160a01b031681565b6040516001600160a01b0390911681526020015b60405180910390f35b3480156100cd575f80fd5b506100e16100dc366004610a48565b6101cd565b6040519081526020016100b9565b3480156100fa575f80fd5b5061010e610109366004610adf565b6101f2565b6040516100b99190610bb5565b348015610126575f80fd5b5061013a610135366004610c32565b6103a7565b005b348015610147575f80fd5b507f00000000000000000000000000000000000000000000000000000000000000006100a5565b348015610179575f80fd5b5061018d610188366004610c4b565b610425565b6040516100b99190610ccb565b3480156101a5575f80fd5b5061013a6101b4366004610c32565b6104a7565b3480156101c4575f80fd5b506100e16105ed565b5f6101d6610682565b6101e084846106fc565b90506101eb826107a7565b9392505050565b60606101fc6107fc565b858414801561020a57508382145b61024d5760405162461bcd60e51b815260206004820152600f60248201526e0d8cadccee8d040dad2e6dac2e8c6d608b1b60448201526064015b60405180910390fd5b8567ffffffffffffffff81111561026657610266610cdd565b60405190808252806020026020018201604052801561029957816020015b60608152602001906001900390816102845790505b5090505f5b8681101561039c575f808989848181106102ba576102ba610cf1565b90506020020160208101906102cf9190610c32565b6001600160a01b03168888858181106102ea576102ea610cf1565b9050602002013587878681811061030357610303610cf1565b90506020028101906103159190610d05565b604051610323929190610d48565b5f6040518083038185875af1925050503d805f811461035d576040519150601f19603f3d011682016040523d82523d5f602084013e610362565b606091505b50915091508161037457805160208201fd5b8084848151811061038757610387610cf1565b6020908102919091010152505060010161029e565b509695505050505050565b6103af6107fc565b6001600160a01b0381166103d65760405163d92e233d60e01b815260040160405180910390fd5b5f80546001600160a01b038381166001600160a01b0319831681178455604051919092169283917f5f23747d0a034f66e84c2e9398e09fdae5d0ea00a7c1cfbf169af52bb9aa08889190a35050565b606061042f6107fc565b5f80866001600160a01b031686868660405161044c929190610d48565b5f6040518083038185875af1925050503d805f8114610486576040519150601f19603f3d011682016040523d82523d5f602084013e61048b565b606091505b50915091508161049d57805160208201fd5b9695505050505050565b7ff0c57e16840df040f15088dc2f81fe391c3923bec73e23a9662efc9c229c6a008054600160401b810460ff16159067ffffffffffffffff165f811580156104ec5750825b90505f8267ffffffffffffffff1660011480156105085750303b155b905081158015610516575080155b156105345760405163f92ee8a960e01b815260040160405180910390fd5b845467ffffffffffffffff19166001178555831561055e57845460ff60401b1916600160401b1785555b6001600160a01b0386166105855760405163d92e233d60e01b815260040160405180910390fd5b5f80546001600160a01b0319166001600160a01b03881617905583156105e557845460ff60401b19168555604051600181527fc7f505b2f371ae2175ee4913f4499e1f2633a7b5936321eed1cdaeb6115181d29060200160405180910390a15b505050505050565b5f7f0000000000000000000000000000000000000000000000000000000000000000604051631aab3f0d60e11b81523060048201525f60248201526001600160a01b0391909116906335567e1a90604401602060405180830381865afa158015610659573d5f803e3d5ffd5b505050506040513d601f19601f8201168201806040525081019061067d9190610d57565b905090565b336001600160a01b037f000000000000000000000000000000000000000000000000000000000000000016146106fa5760405162461bcd60e51b815260206004820152601c60248201527f6163636f756e743a206e6f742066726f6d20456e747279506f696e74000000006044820152606401610244565b565b7f19457468657265756d205369676e6564204d6573736167653a0a3332000000005f908152601c829052603c81205f6107768261073d610100880188610d05565b8080601f0160208091040260200160405190810160405280939291908181526020018383808284375f9201919091525061085392505050565b5f549091506001600160a01b038083169116146107985760019250505061079e565b5f925050505b92915050565b50565b80156107a4576040515f9033905f1990849084818181858888f193505050503d805f81146107f0576040519150601f19603f3d011682016040523d82523d5f602084013e6107f5565b606091505b5050505050565b336001600160a01b037f000000000000000000000000000000000000000000000000000000000000000016148015906108355750333014155b156106fa57604051635172e04d60e11b815260040160405180910390fd5b5f805f80610861868661087b565b92509250925061087182826108c4565b5090949350505050565b5f805f83516041036108b2576020840151604085015160608601515f1a6108a488828585610980565b9550955095505050506108bd565b505081515f91506002905b9250925092565b5f8260038111156108d7576108d7610d6e565b036108e0575050565b60018260038111156108f4576108f4610d6e565b036109125760405163f645eedf60e01b815260040160405180910390fd5b600282600381111561092657610926610d6e565b036109475760405163fce698f760e01b815260048101829052602401610244565b600382600381111561095b5761095b610d6e565b0361097c576040516335e2f38360e21b815260048101829052602401610244565b5050565b5f80807f7fffffffffffffffffffffffffffffff5d576e7357a4501ddfe92f46681b20a08411156109b957505f91506003905082610a3e565b604080515f808252602082018084528a905260ff891692820192909252606081018790526080810186905260019060a0016020604051602081039080840390855afa158015610a0a573d5f803e3d5ffd5b5050604051601f1901519150506001600160a01b038116610a3557505f925060019150829050610a3e565b92505f91508190505b9450945094915050565b5f805f60608486031215610a5a575f80fd5b833567ffffffffffffffff811115610a70575f80fd5b84016101208187031215610a82575f80fd5b95602085013595506040909401359392505050565b5f8083601f840112610aa7575f80fd5b50813567ffffffffffffffff811115610abe575f80fd5b6020830191508360208260051b8501011115610ad8575f80fd5b9250929050565b5f805f805f8060608789031215610af4575f80fd5b863567ffffffffffffffff80821115610b0b575f80fd5b610b178a838b01610a97565b90985096506020890135915080821115610b2f575f80fd5b610b3b8a838b01610a97565b90965094506040890135915080821115610b53575f80fd5b50610b6089828a01610a97565b979a9699509497509295939492505050565b5f81518084525f5b81811015610b9657602081850181015186830182015201610b7a565b505f602082860101526020601f19601f83011685010191505092915050565b5f60208083016020845280855180835260408601915060408160051b8701019250602087015f5b82811015610c0a57603f19888603018452610bf8858351610b72565b94509285019290850190600101610bdc565b5092979650505050505050565b80356001600160a01b0381168114610c2d575f80fd5b919050565b5f60208284031215610c42575f80fd5b6101eb82610c17565b5f805f8060608587031215610c5e575f80fd5b610c6785610c17565b935060208501359250604085013567ffffffffffffffff80821115610c8a575f80fd5b818701915087601f830112610c9d575f80fd5b813581811115610cab575f80fd5b886020828501011115610cbc575f80fd5b95989497505060200194505050565b602081525f6101eb6020830184610b72565b634e487b7160e01b5f52604160045260245ffd5b634e487b7160e01b5f52603260045260245ffd5b5f808335601e19843603018112610d1a575f80fd5b83018035915067ffffffffffffffff821115610d34575f80fd5b602001915036819003821315610ad8575f80fd5b818382375f9101908152919050565b5f60208284031215610d67575f80fd5b5051919050565b634e487b7160e01b5f52602160045260245ffdfea2646970667358221220724b854f0ce0c9e70200b9a5e606b8edfffff7a91aec7541b08fc53f43ffb7bd64736f6c63430008180033","linkReferences":{}},"methodIdentifiers":{"ACCOUNT_IMPLEMENTATION()":"290ab984","ENTRY_POINT()":"94430fa5","createAccount(address,uint256)":"5fbfb9cf","getAddress(address,uint256)":"8cb84e18"},"id":27}