{"abi":[{"type":"constructor","inputs":[{"name":"sequencer_","type":"address","internalType":"address"}],"stateMutability":"nonpayable"},{"type":"function","name":"DOMAIN_SEPARATOR","inputs":[],"outputs":[{"name":"","type":"bytes32","internalType":"bytes32"}],"stateMutability":"view"},{"type":"function","name":"auctions","inputs":[{"name":"","type":"bytes32","internalType":"bytes32"}],"outputs":[{"name":"state","type":"uint8","internalType":"enum IAuctionTypes.AuctionState"},{"name":"manifestHash","type":"bytes32","internalType":"bytes32"},{"name":"roomConfigHash","type":"bytes32","internalType":"bytes32"},{"name":"reservePrice","type":"uint256","internalType":"uint256"},{"name":"depositAmount","type":"uint256","internalType":"uint256"},{"name":"deadline","type":"uint256","internalType":"uint256"},{"name":"finalLogHash","type":"bytes32","internalType":"bytes32"},{"name":"replayContentHash","type":"bytes32","internalType":"bytes32"},{"name":"winnerAgentId","type":"uint256","internalType":"uint256"},{"name":"winnerWallet","type":"address","internalType":"address"},{"name":"finalPrice","type":"uint256","internalType":"uint256"},{"name":"closeTimestamp","type":"uint64","internalType":"uint64"}],"stateMutability":"view"},{"type":"function","name":"cancelExpiredAuction","inputs":[{"name":"auctionId","type":"bytes32","internalType":"bytes32"}],"outputs":[],"stateMutability":"nonpayable"},{"type":"function","name":"createAuction","inputs":[{"name":"auctionId","type":"bytes32","internalType":"bytes32"},{"name":"manifestHash","type":"bytes32","internalType":"bytes32"},{"name":"roomConfigHash","type":"bytes32","internalType":"bytes32"},{"name":"reservePrice","type":"uint256","internalType":"uint256"},{"name":"depositAmount","type":"uint256","internalType":"uint256"},{"name":"deadline","type":"uint256","internalType":"uint256"}],"outputs":[],"stateMutability":"nonpayable"},{"type":"function","name":"escrowAddress","inputs":[],"outputs":[{"name":"","type":"address","internalType":"address"}],"stateMutability":"view"},{"type":"function","name":"getAuctionState","inputs":[{"name":"auctionId","type":"bytes32","internalType":"bytes32"}],"outputs":[{"name":"","type":"uint8","internalType":"enum IAuctionTypes.AuctionState"}],"stateMutability":"view"},{"type":"function","name":"getWinner","inputs":[{"name":"auctionId","type":"bytes32","internalType":"bytes32"}],"outputs":[{"name":"agentId","type":"uint256","internalType":"uint256"},{"name":"wallet","type":"address","internalType":"address"},{"name":"price","type":"uint256","internalType":"uint256"}],"stateMutability":"view"},{"type":"function","name":"markSettled","inputs":[{"name":"auctionId","type":"bytes32","internalType":"bytes32"}],"outputs":[],"stateMutability":"nonpayable"},{"type":"function","name":"owner","inputs":[],"outputs":[{"name":"","type":"address","internalType":"address"}],"stateMutability":"view"},{"type":"function","name":"recordResult","inputs":[{"name":"packet","type":"tuple","internalType":"struct IAuctionTypes.AuctionSettlementPacket","components":[{"name":"auctionId","type":"bytes32","internalType":"bytes32"},{"name":"manifestHash","type":"bytes32","internalType":"bytes32"},{"name":"finalLogHash","type":"bytes32","internalType":"bytes32"},{"name":"winnerAgentId","type":"uint256","internalType":"uint256"},{"name":"winnerWallet","type":"address","internalType":"address"},{"name":"winningBidAmount","type":"uint256","internalType":"uint256"},{"name":"closeTimestamp","type":"uint64","internalType":"uint64"}]},{"name":"sequencerSig","type":"bytes","internalType":"bytes"}],"outputs":[],"stateMutability":"nonpayable"},{"type":"function","name":"renounceOwnership","inputs":[],"outputs":[],"stateMutability":"nonpayable"},{"type":"function","name":"sequencerAddress","inputs":[],"outputs":[{"name":"","type":"address","internalType":"address"}],"stateMutability":"view"},{"type":"function","name":"setEscrow","inputs":[{"name":"escrow_","type":"address","internalType":"address"}],"outputs":[],"stateMutability":"nonpayable"},{"type":"function","name":"setSequencer","inputs":[{"name":"sequencer_","type":"address","internalType":"address"}],"outputs":[],"stateMutability":"nonpayable"},{"type":"function","name":"transferOwnership","inputs":[{"name":"newOwner","type":"address","internalType":"address"}],"outputs":[],"stateMutability":"nonpayable"},{"type":"function","name":"updateWinnerWallet","inputs":[{"name":"auctionId","type":"bytes32","internalType":"bytes32"},{"name":"newWallet","type":"address","internalType":"address"},{"name":"sig","type":"bytes","internalType":"bytes"}],"outputs":[],"stateMutability":"nonpayable"},{"type":"event","name":"AuctionCancelled","inputs":[{"name":"auctionId","type":"bytes32","indexed":true,"internalType":"bytes32"}],"anonymous":false},{"type":"event","name":"AuctionCreated","inputs":[{"name":"auctionId","type":"bytes32","indexed":true,"internalType":"bytes32"},{"name":"manifestHash","type":"bytes32","indexed":false,"internalType":"bytes32"},{"name":"reservePrice","type":"uint256","indexed":false,"internalType":"uint256"},{"name":"depositAmount","type":"uint256","indexed":false,"internalType":"uint256"},{"name":"deadline","type":"uint256","indexed":false,"internalType":"uint256"}],"anonymous":false},{"type":"event","name":"AuctionEnded","inputs":[{"name":"auctionId","type":"bytes32","indexed":true,"internalType":"bytes32"},{"name":"winnerAgentId","type":"uint256","indexed":true,"internalType":"uint256"},{"name":"winnerWallet","type":"address","indexed":false,"internalType":"address"},{"name":"finalPrice","type":"uint256","indexed":false,"internalType":"uint256"},{"name":"finalLogHash","type":"bytes32","indexed":false,"internalType":"bytes32"},{"name":"replayContentHash","type":"bytes32","indexed":false,"internalType":"bytes32"}],"anonymous":false},{"type":"event","name":"AuctionSettled","inputs":[{"name":"auctionId","type":"bytes32","indexed":true,"internalType":"bytes32"}],"anonymous":false},{"type":"event","name":"EscrowBound","inputs":[{"name":"escrow","type":"address","indexed":true,"internalType":"address"}],"anonymous":false},{"type":"event","name":"OwnershipTransferred","inputs":[{"name":"previousOwner","type":"address","indexed":true,"internalType":"address"},{"name":"newOwner","type":"address","indexed":true,"internalType":"address"}],"anonymous":false},{"type":"event","name":"SequencerUpdated","inputs":[{"name":"oldSequencer","type":"address","indexed":true,"internalType":"address"},{"name":"newSequencer","type":"address","indexed":true,"internalType":"address"}],"anonymous":false},{"type":"event","name":"WinnerWalletUpdated","inputs":[{"name":"auctionId","type":"bytes32","indexed":true,"internalType":"bytes32"},{"name":"oldWallet","type":"address","indexed":false,"internalType":"address"},{"name":"newWallet","type":"address","indexed":false,"internalType":"address"}],"anonymous":false},{"type":"error","name":"AuctionAlreadyExists","inputs":[]},{"type":"error","name":"AuctionNotClosed","inputs":[]},{"type":"error","name":"AuctionNotExpired","inputs":[]},{"type":"error","name":"AuctionNotOpen","inputs":[]},{"type":"error","name":"ECDSAInvalidSignature","inputs":[]},{"type":"error","name":"ECDSAInvalidSignatureLength","inputs":[{"name":"length","type":"uint256","internalType":"uint256"}]},{"type":"error","name":"ECDSAInvalidSignatureS","inputs":[{"name":"s","type":"bytes32","internalType":"bytes32"}]},{"type":"error","name":"EscrowAlreadyBound","inputs":[]},{"type":"error","name":"InvalidEIP712Sig","inputs":[]},{"type":"error","name":"InvalidSequencerSig","inputs":[]},{"type":"error","name":"OnlyEscrow","inputs":[]},{"type":"error","name":"OnlySequencer","inputs":[]},{"type":"error","name":"OwnableInvalidOwner","inputs":[{"name":"owner","type":"address","internalType":"address"}]},{"type":"error","name":"OwnableUnauthorizedAccount","inputs":[{"name":"account","type":"address","internalType":"address"}]},{"type":"error","name":"ZeroAddress","inputs":[]}],"bytecode":{"object":"0x60a060405234801561000f575f80fd5b5060405161144938038061144983398101604081905261002e91610196565b338061005357604051631e4fbdf760e01b81525f600482015260240160405180910390fd5b61005c81610147565b506001600160a01b0381166100845760405163d92e233d60e01b815260040160405180910390fd5b600180546001600160a01b0319166001600160a01b038316179055604080517f8b73c3c69bb8fe3d512ecc4cf759cc79239f7b179b0ffacaa9a75d522b39400f60208201527ff6124db014048b244f27cc9fc0da533130a5148bdbc6322befd1415273b9e0b9918101919091527fc89efdaa54c0f20c7adf612882df0950f5a951637e0307cdcb4c672f298b8bc660608201524660808201523060a082015260c00160408051601f198184030181529190528051602090910120608052506101c3565b5f80546001600160a01b038381166001600160a01b0319831681178455604051919092169283917f8be0079c531659141344cd1fd0a4f28419497f9722a3daafe3b4186f6b6457e09190a35050565b5f602082840312156101a6575f80fd5b81516001600160a01b03811681146101bc575f80fd5b9392505050565b60805161126e6101db5f395f61026c015261126e5ff3fe608060405234801561000f575f80fd5b50600436106100fb575f3560e01c806386caf10211610093578063a884741311610063578063a8847413146102ed578063c10c35461461031c578063df06ebc61461032f578063f2fde38b14610342575f80fd5b806386caf102146102a45780638a55e7c7146102b75780638da5cb5b146102ca578063a0257ac1146102da575f80fd5b80632cee6a6b116100ce5780632cee6a6b146102415780632df26c5c146102545780633644e51514610267578063715018a61461029c575f80fd5b80630d5defa4146100ff5780631e5f91491461012f5780631edbc5be1461018d5780632547fa3e1461022c575b5f80fd5b600254610112906001600160a01b031681565b6040516001600160a01b0390911681526020015b60405180910390f35b61016a61013d366004610f44565b5f90815260036020526040902060088101546009820154600a9092015490926001600160a01b0390921691565b604080519384526001600160a01b03909216602084015290820152606001610126565b61021461019b366004610f44565b600360208190525f918252604090912080546001820154600283015493830154600484015460058501546006860154600787015460088801546009890154600a8a0154600b909a015460ff9099169a979997989697959694959394929391926001600160a01b03909116919067ffffffffffffffff168c565b6040516101269c9b9a99989796959493929190610f8f565b61023f61023a36600461101f565b610355565b005b600154610112906001600160a01b031681565b61023f610262366004610f44565b6103d5565b61028e7f000000000000000000000000000000000000000000000000000000000000000081565b604051908152602001610126565b61023f610483565b61023f6102b2366004610f44565b610496565b61023f6102c536600461103f565b610525565b5f546001600160a01b0316610112565b61023f6102e83660046110c3565b6106fd565b61030f6102fb366004610f44565b5f9081526003602052604090205460ff1690565b604051610126919061111a565b61023f61032a36600461101f565b6108ec565b61023f61033d366004611128565b610994565b61023f61035036600461101f565b610c3a565b61035d610c7c565b6001600160a01b0381166103845760405163d92e233d60e01b815260040160405180910390fd5b600180546001600160a01b038381166001600160a01b0319831681179093556040519116919082907fcd58b762453bd126b48db83f2cecd464f5281dd7e5e6824b528c09d0482984d6905f90a35050565b5f8181526003602052604090206001815460ff1660048111156103fa576103fa610f5b565b146104185760405163f046007760e01b815260040160405180910390fd5b600581015461042a906203f48061117e565b42101561044a57604051639eafe1b760e01b815260040160405180910390fd5b805460ff1916600417815560405182907fd88fab4b08bf76f15cf2d6e03e382acf1edd6790ab82967e406abac37db20288905f90a25050565b61048b610c7c565b6104945f610ca8565b565b61049e610cf7565b60025f8281526003602052604090205460ff1660048111156104c2576104c2610f5b565b146104e05760405163b9adeefd60e01b815260040160405180910390fd5b5f818152600360208190526040808320805460ff19169092179091555182917f9adaa52fec28b7d59b397f9b44bed38628a3d39e2c03278b14e9be3f14c799ba91a250565b61052d610d22565b5f8681526003602052604081205460ff16600481111561054f5761054f610f5b565b1461056c57604051628b039960e31b815260040160405180910390fd5b604080516101808101909152806001815260208082018890526040808301889052606083018790526080830186905260a083018590525f60c0840181905260e084018190526101008401819052610120840181905261014084018190526101609093018390528983526003909152902081518154829060ff191660018360048111156105fa576105fa610f5b565b0217905550602082810151600183015560408084015160028401556060808501516003850155608080860151600486015560a0860151600586015560c0860151600686015560e0860151600786015561010086015160088601556101208601516009860180546001600160a01b0319166001600160a01b03909216919091179055610140860151600a86015561016090950151600b909401805467ffffffffffffffff191667ffffffffffffffff909516949094179093558051898152918201879052810185905290810183905287917fdd65a9882ea6b7fa570d3f9e932b7b894db5afa979fee34edf40b58c6a74d76e910160405180910390a2505050505050565b82355f9081526003602052604090206001815460ff16600481111561072457610724610f5b565b146107425760405163f046007760e01b815260040160405180910390fd5b5f8460405160200161075491906111b4565b6040516020818303038152906040528051906020012090505f6107ac8286868080601f0160208091040260200160405190810160405280939291908181526020018383808284375f92019190915250610d4d92505050565b6001549091506001600160a01b038083169116146107dd57604051630894c59560e21b815260040160405180910390fd5b825460ff19166002178355604086013560068401555f60078401556060860135600884015561081260a087016080880161101f565b6009840180546001600160a01b0319166001600160a01b039290921691909117905560a0860135600a84015561084e60e0870160c0880161121f565b600b8401805467ffffffffffffffff191667ffffffffffffffff92909216919091179055606086013586357f3dcdea7b1a21675e0fe67250268a7ba0449cee0df2a6626fe7ca2bc4e6fd67886108aa60a08a0160808b0161101f565b604080516001600160a01b0392909216825260a08b01356020808401919091528b820135838301528b01356060830152519081900360800190a3505050505050565b6108f4610c7c565b600254600160a01b900460ff161561091e5760405162e9054b60e61b815260040160405180910390fd5b6001600160a01b0381166109455760405163d92e233d60e01b815260040160405180910390fd5b600280546001600160a81b0319166001600160a01b038316908117600160a01b179091556040517f146330edb7751faf74556ab6367a0e4ace68c2da6c356c1526ca481ee95d5b92905f90a250565b5f8481526003602052604090206002815460ff1660048111156109b9576109b9610f5b565b141580156109dd57506003815460ff1660048111156109da576109da610f5b565b14155b156109fb5760405163b9adeefd60e01b815260040160405180910390fd5b6001600160a01b038416610a225760405163d92e233d60e01b815260040160405180910390fd5b604080517f8b73c3c69bb8fe3d512ecc4cf759cc79239f7b179b0ffacaa9a75d522b39400f6020808301919091527f4c0d344011505816be58b1e12b66f9f9315e313b7266e40e654d8aef3d3dda1d828401527fc89efdaa54c0f20c7adf612882df0950f5a951637e0307cdcb4c672f298b8bc660608301524660808301523060a0808401919091528351808403909101815260c0830184528051908201207fa1086a7b971c1020029f36665a47d24c1919f6bcfb9576a3c118c02dc4c0424c60e084015261010083018990526001600160a01b038816610120808501919091528451808503909101815261014084019094528351939091019290922061190160f01b61016083015261016282018390526101828201819052905f906101a2016040516020818303038152906040528051906020012090505f610b9a8288888080601f0160208091040260200160405190810160405280939291908181526020018383808284375f92019190915250610d4d92505050565b60098601549091506001600160a01b03808316911614610bcd57604051632c208af160e01b815260040160405180910390fd5b6009850180546001600160a01b038a81166001600160a01b031983168117909355604080519190921680825260208201939093528b917f77d2911063d664bc4ab4a3442a7e8b502d223009f2e4763ad7fef334aa0292fd910160405180910390a250505050505050505050565b610c42610c7c565b6001600160a01b038116610c7057604051631e4fbdf760e01b81525f60048201526024015b60405180910390fd5b610c7981610ca8565b50565b5f546001600160a01b031633146104945760405163118cdaa760e01b8152336004820152602401610c67565b5f80546001600160a01b038381166001600160a01b0319831681178455604051919092169283917f8be0079c531659141344cd1fd0a4f28419497f9722a3daafe3b4186f6b6457e09190a35050565b6002546001600160a01b0316331461049457604051630d0418ed60e11b815260040160405180910390fd5b6001546001600160a01b031633146104945760405163bb62587160e01b815260040160405180910390fd5b5f805f80610d5b8686610d77565b925092509250610d6b8282610dc0565b50909150505b92915050565b5f805f8351604103610dae576020840151604085015160608601515f1a610da088828585610e7c565b955095509550505050610db9565b505081515f91506002905b9250925092565b5f826003811115610dd357610dd3610f5b565b03610ddc575050565b6001826003811115610df057610df0610f5b565b03610e0e5760405163f645eedf60e01b815260040160405180910390fd5b6002826003811115610e2257610e22610f5b565b03610e435760405163fce698f760e01b815260048101829052602401610c67565b6003826003811115610e5757610e57610f5b565b03610e78576040516335e2f38360e21b815260048101829052602401610c67565b5050565b5f80807f7fffffffffffffffffffffffffffffff5d576e7357a4501ddfe92f46681b20a0841115610eb557505f91506003905082610f3a565b604080515f808252602082018084528a905260ff891692820192909252606081018790526080810186905260019060a0016020604051602081039080840390855afa158015610f06573d5f803e3d5ffd5b5050604051601f1901519150506001600160a01b038116610f3157505f925060019150829050610f3a565b92505f91508190505b9450945094915050565b5f60208284031215610f54575f80fd5b5035919050565b634e487b7160e01b5f52602160045260245ffd5b60058110610f8b57634e487b7160e01b5f52602160045260245ffd5b9052565b6101808101610f9e828f610f6f565b602082019c909c52604081019a909a5260608a0198909852608089019690965260a088019490945260c087019290925260e08601526101008501526001600160a01b031661012084015261014083015267ffffffffffffffff1661016090910152919050565b80356001600160a01b038116811461101a575f80fd5b919050565b5f6020828403121561102f575f80fd5b61103882611004565b9392505050565b5f805f805f8060c08789031215611054575f80fd5b505084359660208601359650604086013595606081013595506080810135945060a0013592509050565b5f8083601f84011261108e575f80fd5b50813567ffffffffffffffff8111156110a5575f80fd5b6020830191508360208285010111156110bc575f80fd5b9250929050565b5f805f8385036101008112156110d7575f80fd5b60e08112156110e4575f80fd5b5083925060e084013567ffffffffffffffff811115611101575f80fd5b61110d8682870161107e565b9497909650939450505050565b60208101610d718284610f6f565b5f805f806060858703121561113b575f80fd5b8435935061114b60208601611004565b9250604085013567ffffffffffffffff811115611166575f80fd5b6111728782880161107e565b95989497509550505050565b80820180821115610d7157634e487b7160e01b5f52601160045260245ffd5b803567ffffffffffffffff8116811461101a575f80fd5b8135815260208083013590820152604080830135908201526060808301359082015260e081016001600160a01b036111ee60808501611004565b16608083015260a083013560a083015267ffffffffffffffff61121360c0850161119d565b1660c083015292915050565b5f6020828403121561122f575f80fd5b6110388261119d56fea2646970667358221220a8ee1367fff1b92ee8bda9d23c8bd05f7fa36c560b2855ef58ae04fc9bdfef6c64736f6c63430008180033","linkReferences":{}},"methodIdentifiers":{"DOMAIN_SEPARATOR()":"3644e515","auctions(bytes32)":"1edbc5be","cancelExpiredAuction(bytes32)":"2df26c5c","createAuction(bytes32,bytes32,bytes32,uint256,uint256,uint256)":"8a55e7c7","escrowAddress()":"0d5defa4","getAuctionState(bytes32)":"a8847413","getWinner(bytes32)":"1e5f9149","markSettled(bytes32)":"86caf102","owner()":"8da5cb5b","recordResult((bytes32,bytes32,bytes32,uint256,address,uint256,uint64),bytes)":"a0257ac1","renounceOwnership()":"715018a6","sequencerAddress()":"2cee6a6b","setEscrow(address)":"c10c3546","setSequencer(address)":"2547fa3e","transferOwnership(address)":"f2fde38b","updateWinnerWallet(bytes32,address,bytes)":"df06ebc6"},"id":24}